:020000020000FC
:0200000004C03A
:02000400F7C043
:100008001AC10FEF0DBF08E00EBF0FE000936900A3
:1000180003E00DBB0FEF04B903E00AB90E9A0F9A7B
:100028002C9A5AD149D076D1D1E0C8E08AE390E041
:10003800789410E0109302011093010110930001CD
:100048001093050110930601109303011093040106
:100058000091050100FFFCCF00910601013019F461
:100068000E94B300F5CF0E94A800F2CF00003A002A
:10007800680001004300CB00FF003A00A200030023
:100088004300B80002003A00C700FF004300A20086
:10009800E82FEE0FF92FFF1F2491201721F02F3F93
:1000A80011F03696F9CF32968591959145915491F4
:1000B800E42FF52F0995089590E3A0E2F1E0E8E038
:1000C800A1939A95E9F70895D1E0C8E00EE609935F
:1000D80000E209930DE3099300E2099310E300910C
:1000E8000201012B099300910101012B0993009151
:1000F8000001012B09930E948E01089520910401AB
:100108000091010100930201009100010093010197
:1001180020930001089529B1207F22950E9495001F
:100128000895F2E0E6E600E0E20FF00F249108956A
:1001380010E21A95F1F70A95D9F70895169A0FEF74
:100148000E949C0016980895179AF2DF0AE0179803
:10015800EFDF0AE03A95C1F70E94C70008950AE068
:10016800179AE6DF1798089501E0009305010091BA
:100178000301003021F000E000930601089501E03A
:1001880000930601FBCF00E000930501089500915C
:10019800000110910101209102011295012B2F708D
:1001A800122F20E00E94EE003E2D309303010895A7
:1001B8003295CE2CDF2CEE0CFF1CCC0CDD1CCC0CAD
:1001C800DD1CCC0CDD1CEC0CFD1C3F70E30E08F4B0
:1001D800F39408952F70FF24E22E312FE9DF312F99
:1001E800E8DF302FE5DF302FE4DF08952F930F93FA
:1001F8000FB70F9301E00CBB8EDF2A3068F099F03F
:100208002C30A9F00FEF009307010E944C000F91CA
:100218000FBF0F912F9118952093040100E00093D0
:1002280007016CDFF2CF02E000930701EECF01E097
:1002380000930701EACF0F930FB70F934B99FECFA7
:1002480004E676DF4B99FACF02E00CBB03E000939B
:1002580007010E944C000F910FBF0F9118950102E2
:10026800030F0405060E0708090D0A000B0C000011
:1002780000008F938FE08A95F1F78F910895F7DF4B
:100288006A95E9F77A95D9F7089560E074E0F7DFA1
:1002980008950F93259A279A249A0CE50CBD0DB55D
:1002A8000EB50F9108950F932B982C980F910EBDB2
:1002B8000DB507FFFDCF0EB52C9A08950F932B9A15
:1002C8002C980DB50EB50F910EBD0DB51EB507FFD7
:1002D800FCCF0EB52C9A0895DCDFD7DF09E3E3DF06
:1002E800C6DF09E3E0DFC3DF0EE1DDDFC0DF00E5E5
:1002F800DADFBDDF0CE6D7DFC8DF07E7D4DFB7DF1B
:100308000CE0D1DFB4DF01E0CEDFB1DF06E0CBDF08
:10031800AEDF0895BEDF40E14F93F1E0E8E000E88A
:10032800C2DFA5DF0191CADFA2DF4A95D9F74F9155
:100338004F93F1E0E8E100E9B6DF99DF0191BEDF14
:1003480096DF4A95D9F74F91F1E0E8E200EAABDF92
:0E0358008EDF0191B3DF8BDF4A95D9F7089550
:00000001FF
