:020000020000FC
:0200000004C03A
:02000400D0C06A
:10000800E3C00FEF0DBF08E00EBF0FE000936900DB
:1000180003E00DBB0FEF04B903E00AB90F9A2C9A5D
:1000280022D15DD03ED1D1E0C7E0789410E01093A2
:100038000201109301011093000110930501109320
:100048000601109303011093040110E010930501B9
:100058000091000110910101209102011295012BDC
:100068002F70122F20E00E94C7003E2D309303010D
:1000780000910601013011F03AD0E7CF00E000937B
:1000880006010AE0309103013030B1F0179A63D0CD
:100098000AE0179860D00AE03A95C1F74091060146
:1000A80050910501413051F3513009F0F7CF2091BB
:1000B80004012A3051F2F2CF179A4DD00AE017986E
:1000C8004AD00AE04091050140FFF6CF2091040193
:1000D8002A3021F010E010930501EECFA7CF90E36E
:1000E800A0E2F1E0E7E0A1939A95E9F70895D1E05D
:1000F800C7E00EE6099300E209930DE3099300E2D5
:10010800099310E300910201012B09930091010169
:10011800012B099300910001012B09930E945501BD
:1001280008952091040100910101009302010091BA
:1001380000010093010120930001089529B1207F57
:1001480022950E94A8000895F1E0E4EF00E0E20F94
:10015800F00F2491089510E21A95F1F70A95D9F74E
:1001680008953295CE2CDF2CEE0CFF1CCC0CDD1C38
:10017800CC0CDD1CCC0CDD1CEC0CFD1C3F70E30E24
:1001880008F4F39408952F70FF24E22E312FE9DF4D
:10019800312FE8DF302FE5DF302FE4DF08952F938C
:1001A8000F930FB70F9301E00093050101E00CBB1B
:1001B800C5DF2A302093040128F00F910FBF0F915B
:1001C8002F911895AEDFF9CF0F930FB70F934B9977
:1001D800FECF04E6C0DF4B99FACF02E00CBB01E08A
:1001E800009306010F910FBF0F9118950102030F9D
:1001F8000405060E0708090D0A000B0C0000000094
:100208008F938FE08A95F1F78F910895F7DF6A95BC
:10021800E9F77A95D9F7089560E074E0F7DF089573
:100228000F93259A279A249A0CE50CBD0DB50EB5A7
:100238000F9108950F932B982C980F910EBD0DB523
:1002480007FFFDCF0EB52C9A08950F932B9A2C9883
:100258000DB50EB50F910EBD0DB51EB507FFFCCF40
:100268000EB52C9A0895DCDFD7DF09E3E3DFC6DF9C
:1002780009E3E0DFC3DF0EE1DDDFC0DF00E5DADF41
:10028800BDDF0CE6D7DFC8DF07E7D4DFB7DF0CE058
:10029800D1DFB4DF01E0CEDFB1DF06E0CBDFAEDFD8
:1002A8000895BEDF40E14F93F1E0E7E000E8C2DFE8
:1002B800A5DF0191CADFA2DF4A95D9F74F914F9385
:1002C800F1E0E7E100E9B6DF99DF0191BEDF96DFF3
:1002D8004A95D9F74F91F1E0E7E200EAABDF8EDF0C
:0C02E8000191B3DF8BDF4A95D9F7089530
:00000001FF
