:020000020000FC
:1000000002C0189518950FEF0DBF08E00EBF0FEF57
:1000100004B910E01AB90FE00BB90F9A0A9A0B98BD
:100020000C9820E827B94798479A1298129A2C9A68
:10003000D1D169D0EDD1D1E0C0E11093020110938C
:10004000010110930001109304010AE000930801DC
:1000500000930C0103E210E200930D0110930E01D6
:1000600010930F010E946A012A30E1F7B4D044D105
:1000700043FD0FC046FD01C0FACF36D12F3009F441
:1000800057D02E3009F447D02C3009F48ED0A3D0AD
:10009000EECFFCD09DD0E0920301E092040102D1AA
:1000A00097D0E09208010AD193D0E0920C01129807
:1000B000129A309104013030C1F000910801179A72
:1000C00028D1179800910C0124D13A95B1F740B18D
:1000D00056B148705074483051F3503409F0F7CF9E
:1000E000F9D02A3021F20C94670000910801179A88
:1000F00010D1179800910C010CD1369BF6CFF4D09B
:100100002A3001F0B4CF90E3A0E2F1E0E0E1A19366
:100110009A95E9F7089500910D0110910E01209133
:100120000F0100930E0110930F0120930D0108950C
:1001300000910D0110910E0120910F0100930F010C
:1001400020930E0110930D010895C4D02A3008F0B9
:1001500008950091010100930201009100010093B4
:1001600001012093000137D0F0CFB4D02A3008F03D
:100170000895009106010093070100910501009385
:1001800006012093050127D0F0CFA4D02A3008F033
:10019000089500910A0100930B0100910901009359
:1001A0000A012093090117D0F0CFD1E0C8E10881FE
:1001B000033209F4CADFD1E0C8E20881033209F44E
:1001C000D4DFD1E0C8E30881033209F4DEDF08950B
:1001D0000E94A1010895D1E0C0E10EE6099300E27A
:1001E00009930DE3099300E2099310E300910201E2
:1001F000012B099300910101012B0993009100014A
:10020000012B099300E2099300910D0109930E94CB
:100210000802D1E0C0E204E7099300E209930DE38C
:10022000099300E2099310E300910701012B099360
:1002300000910601012B099300910501012B0993FF
:1002400000E2099300910E0109930E940802D1E097
:10025000C0E304E6099300E209930DE3099300E289
:10026000099310E300910B01012B099300910A01FE
:10027000012B099300910901012B099300E20993D5
:1002800000910F0109930E94080208950091000156
:1002900010910101209102011295012B2F70122F54
:1002A00020E00895009105011091060120910701B9
:1002B0001295012B2F70122F20E008950091090153
:1002C00010910A0120910B011295012B2F70122F12
:1002D00020E00895369BFECF29B1207F22950E9411
:1002E00082014798479A089529B1207F22950E945C
:1002F00082014798479A089540B156B148705074AA
:10030000452B0895F3E0EAE500E0E20FF00F2491B9
:10031000089510E21A95F1F70A95D9F708953295E4
:10032000CE2CDF2CEE0CFF1CCC0CDD1CCC0CDD1C11
:10033000CC0CDD1CEC0CFD1C3F70E30E08F4F394B8
:1003400008952F70FF24E22E312FE9DF312FE8DFEF
:10035000302FE5DF302FE4DF08950102030F04059D
:10036000060E0708090D0A000B0C000000008F9311
:100370008FE08A95F1F78F910895F7DF6A95E9F795
:100380007A95D9F7089560E074E0F7DF08950F9348
:10039000259A279A249A0CE50CBD0DB50EB50F9140
:1003A00008950F932B982C980F910EBD0DB507FF54
:1003B000FDCF0EB52C9A08950F932B9A2C980DB55E
:1003C0000EB50F910EBD0DB51EB507FFFCCF0EB5D6
:1003D0002C9A0895DCDFD7DF09E3E3DFC6DF09E30A
:1003E000E0DFC3DF0EE1DDDFC0DF00E5DADFBDDF28
:1003F0000CE6D7DFC8DF07E7D4DFB7DF0CE0D1DFDB
:10040000B4DF01E0CEDFB1DF06E0CBDFAEDF089581
:10041000BEDF40E14F93F1E0E0E100E8C2DFA5DF9D
:100420000191CADFA2DF4A95D9F74F914F93F1E0CE
:10043000E0E200E9B6DF99DF0191BEDF96DF4A9581
:10044000D9F74F91F1E0E0E300EAABDF8EDF0191F5
:0A045000B3DF8BDF4A95D9F708955A
:00000001FF
