:020000020000FC
:100000000FEF04B900E00AB90FEF0BB903E001B933
:1000100003E002B940E20FEF0DBF08E00EBF29B1C7
:100020002F7039B1307F3295F0E0E4E600E0E20F66
:10003000F01F2491F0E0E4E600E0E30FF01F3491BC
:1000400025B902E002B90E943A0003E002B90000BB
:10005000000035B901E002B90E943A0003E0000057
:100060000000DDCF014F12064C24600F0004086031
:1000700031423038142F08E20A95F1F71A95D9F772
:020080000895E1
:00000001FF
