:020000020000FC
:0200000004C03A
:020004001CC01E
:1000080026C0529853980A9A3F9A0C981298129AB6
:100018004798479A00E000930001009301010FEF11
:100028000DBF08E00EBF00E00093690003E00DBBC0
:1000380078940000FECF0FB70F930091000103954D
:10004800009300010F910FBF4798479A18950FB773
:100058000F930499FCCF04E60ED00499F8CF02E080
:100068000CBB1298129A00910101039500930101AB
:100078000F910FBF189510E21A95F1F70A95D9F765
:020088000895D9
:00000001FF
