:020000020000FC
:100000000AC01895189590E3A0E2F1E0E0E0A19312
:100010009A95E9F708950FEF0DBF08E00EBF0FEFB7
:1000200004B910E01AB90BB924E021B91298129A58
:100030002C9A4FD0E8DF6BD0D1E0C0E020E3039BE7
:10004000FECF0499FECF0AD00499FECF59B159933F
:100050005ED01298129A2A9591F7EECF10E21A9577
:10006000F1F70A95D9F70895000000008F938FE00B
:100070008A95F1F78F910895F7DF6A95E9F77A95F8
:10008000D9F7089560E074E0F7DF08950F93259A9B
:10009000279A249A0CE50CBD0DB50EB50F91089565
:1000A0000F932B982C980F910EBD0DB507FFFDCF28
:1000B0000EB52C9A08950F932B9A2C980DB50EB56A
:1000C0000F910EBD0DB51EB507FFFCCF0EB52C9AD6
:1000D0000895DCDFD7DF09E3E3DFC6DF09E3E0DF14
:1000E000C3DF0EE1DDDFC0DF00E5DADFBDDF0CE6F8
:1000F000D7DFC8DF07E7D4DFB7DF0CE0D1DFB4DF3D
:1001000001E0CEDFB1DF06E0CBDFAEDF0895BEDF7A
:1001100040E14F93F1E0E0E000E8C2DFA5DF0191AC
:10012000CADFA2DF4A95D9F74F914F93F1E0E0E1A2
:1001300000E9B6DF99DF0191BEDF96DF4A95D9F776
:100140004F91F1E0E0E200EAABDF8EDF0191B3DF37
:080150008BDF4A95D9F70895F1
:00000001FF
