:020000020000FC
:100000000FEF04B900E00AB90FEF0BB901E001B935
:1000100001E002B94FEF0FEF0DBF08E00EBF29B1AD
:100020002F70F0E0E2E700E0E20FF01F249125B925
:1000300000E002B90E943E000E943E000E943E0085
:100040000E943E000E943E000E943E000E943E0030
:1000500001E002B90E943E000E943E000E943E0064
:100060000E943E000E943E000E943E000E943E0010
:10007000D6CF014F12064C24600F0000142F0FEF53
:0A0080000A95F1F71A95D9F70895D3
:00000001FF
