:020000020000FC
:1000000002C0189518950FEF0DBF08E00EBF0FEF57
:1000100004B910E01AB90FE00BB90F9A0A9A0B98BD
:100020000C9820E827B94798479A1298129A2C9A68
:10003000FDD04ED019D1D1E0C5E00E949C002A30FD
:10004000E1F74ED00E949C002C3029F00E949100D4
:100050000E947000F7CF00910001109101012091E2
:1000600002011295012B2F70122F20E00E94CD006B
:100070003E2D3093030130930401039BFECF129871
:10008000129A0AE0309104013030B1F0179A6DD025
:100090000AE017986AD00AE03A95C1F740B156B124
:1000A00048705074483059F3503409F0F7CF44D0B9
:1000B0002A3041F20C944E00179A57D00AE0179854
:1000C00054D00AE0369BF8CF41D02A3001F0BACFA5
:1000D00090E3A0E2F1E0E5E0A1939A95E9F70895B5
:1000E0000E9468000E943401D1E0C5E00E948800AF
:1000F00010E300910201012B099300910101012BF2
:10010000099300910001012B09930E943401089585
:100110000EE6099300E209930DE3099300E20993C7
:1001200008950091010100930201009100010093E4
:100130000101209300010895369BFECF29B1207F55
:1001400022950E94AE004798479A089529B1207FD2
:1001500022950E94AE004798479A0895F1E0E2EB9D
:1001600000E0E20FF00F2491089510E21A95F1F7E4
:100170000A95D9F708953295CE2CDF2CEE0CFF1C92
:10018000CC0CDD1CCC0CDD1CCC0CDD1CEC0CFD1CEB
:100190003F70E30E08F4F39408952F70FF24E22ECD
:1001A000312FE9DF312FE8DF302FE5DF302FE4DFBB
:1001B00008950102030F0405060E0708090D0A0041
:1001C0000B0C000000008F938FE08A95F1F78F9160
:1001D0000895F7DF6A95E9F77A95D9F7089560E011
:1001E00074E0F7DF08950F93259A279A249A0CE577
:1001F0000CBD0DB50EB50F9108950F932B982C984B
:100200000F910EBD0DB507FFFDCF0EB52C9A0895C9
:100210000F932B9A2C980DB50EB50F910EBD0DB501
:100220001EB507FFFCCF0EB52C9A0895DCDFD7DF93
:1002300009E3E3DFC6DF09E3E0DFC3DF0EE1DDDF73
:10024000C0DF00E5DADFBDDF0CE6D7DFC8DF07E798
:10025000D4DFB7DF0CE0D1DFB4DF01E0CEDFB1DF08
:1002600006E0CBDFAEDF0895BEDF40E14F93F1E063
:10027000E5E000E8C2DFA5DF0191CADFA2DF4A9511
:10028000D9F74F914F93F1E0E5E100E9B6DF99DF4F
:100290000191BEDF96DF4A95D9F74F91F1E0E5E293
:1002A00000EAABDF8EDF0191B3DF8BDF4A95D9F730
:0202B0000895AF
:00000001FF
