:020000020000FC
:0200000004C03A
:0200040010C228
:100008003EC20FEF0DBF08E00EBF0FE0009369007E
:1000180003E00DBB0FEF04B903E00AB90E9A0F9A7B
:100028002C9A7ED29DD09AD2D1E0C3E187E490E0A9
:10003800789410E0109302011093010110930001CD
:1000480010931001109311011093030110930F01E5
:100058000AE00093070100930B0103E210E200930A
:100068000C0110930D0110930E010091100100FF77
:10007800FCCF00911101013019F40E94D701F5CF8E
:100088000E94CA01F2CF00005900BC0004005900C8
:10009800BC0005005900BC0001005900BC0002006A
:1000A8005900BC00FF005900BC0000005900C30003
:1000B80004007D005B0105006B00560101008F0004
:1000C8009301020059008D01FF0059008D010000C5
:1000D8006B00C800040059005B0105007D00560153
:1000E80002006B008D0101008F009301FF006B007F
:1000F8008D0100007D00CD0004006B005B01050050
:100108005900560102007D008D0101008F00930106
:10011800FF007D008D0103009500DC01FF008F00CA
:100128008D0103009500DC0102005900EB01FF007E
:1001380095008D0100911201E82FEE0FF92FFF1F96
:100148002491201721F02F3F11F03696F9CF3296DF
:100158008591959145915491E42FF52F099508952E
:1001680090E3A0E2F1E0E3E1A1939A95E9F708951D
:100178000E94D2000E94F1000E94100108950E947E
:100188002F010E94D20008950E943C010E94F100B4
:1001980008950E9449010E9410010895D1E0C3E129
:1001A8000EE6099300E209930DE3099300E209932F
:1001B80010E300910201012B099300910101012B29
:1001C800099300910001012B099300E20993009122
:1001D8000C0109930E94B2020895D1E0C3E204E73A
:1001E800099300E209930DE3099300E2099310E3F0
:1001F80000910601012B099300910501012B099338
:1002080000910401012B099300E2099300910D016B
:1002180009930E94B2020895D1E0C3E304E609936A
:1002280000E209930DE3099300E2099310E30091BA
:100238000A01012B099300910901012B09930091EF
:100248000801012B099300E2099300910E0109931B
:100258000E94B202089520910F01009101010093BC
:10026800020100910001009301012093000108950B
:1002780020910F01009105010093060100910401EE
:100288000093050120930401089520910F01009126
:10029800090100930A0100910801009309012093C4
:1002A800080108950E9460010E94BC0008950E9400
:1002B8006D010E94BC00089500910C0110910D0180
:1002C80020910E0100930D0110930E0120930C0153
:1002D800089500910C0110910D0120910E010093D9
:1002E8000E0120930D0110930C01089529B1207F70
:1002F80022950E9480010895F4E0EEEA00E0E20F02
:10030800F00F2491089510E21A95F1F70A95D9F79C
:100318000895169A0FEF0E948701169808950E9473
:10032800A6010E940702E09203010E94B2010E9406
:100338000702E09207010E94BE010E940702E092B4
:100348000B01089500910001109101012091020113
:100358001295012B2F70122F20E0089500910401AF
:1003680010910501209106011295012B2F70122F73
:1003780020E00895009108011091090120910A01D7
:100388001295012B2F70122F20E00895009107017C
:10039800179AB9DF179800910B01B5DF3A95B1F7B5
:1003A8000E94EB0108950AE0179AADDF17980895A7
:1003B80001E00093100100910301003021F000E0FA
:1003C80000931101089501E000931101FBCF00E0B3
:1003D80000931001009302010093010100930001B2
:1003E80008953295CE2CDF2CEE0CFF1CCC0CDD1CB6
:1003F800CC0CDD1CCC0CDD1CEC0CFD1C3F70E30EA2
:1004080008F4F39408952F70FF24E22E312FE9DFCA
:10041800312FE8DF302FE5DF302FE4DF08952F9309
:100428000F930FB70F9301E00CBB60DF2A3088F001
:10043800B1F02C30C1F02F30D1F02E30E1F00FEFB9
:10044800009312010E949E000F910FBF0F912F91F0
:10045800189520930F0100E000931201F3CF02E0FA
:1004680000931201EFCF01E000931201EBCF04E0FB
:1004780000931201E7CF05E000931201E3CF0F9339
:100488000FB70F934B99FECF04E63DDF4B99FACF98
:1004980002E00CBB03E0009312010E949E000F9142
:1004A8000FBF0F9118950102030F0405060E0708E8
:1004B800090D0A000B0C000000008F938FE08A954D
:1004C800F1F78F910895F7DF6A95E9F77A95D9F7EB
:1004D800089560E074E0F7DF08950F93259A279A4E
:1004E800249A0CE50CBD0DB50EB50F9108950F9328
:1004F8002B982C980F910EBD0DB507FFFDCF0EB5AB
:100508002C9A08950F932B9A2C980DB50EB50F9130
:100518000EBD0DB51EB507FFFCCF0EB52C9A08957C
:10052800DCDFD7DF09E3E3DFC6DF09E3E0DFC3DFB2
:100538000EE1DDDFC0DF00E5DADFBDDF0CE6D7DF87
:10054800C8DF07E7D4DFB7DF0CE0D1DFB4DF01E0B5
:10055800CEDFB1DF06E0CBDFAEDF0895BEDF40E1DE
:100568004F93F1E0E3E100E8C2DFA5DF0191CADFC4
:10057800A2DF4A95D9F74F914F93F1E0E3E200E902
:10058800B6DF99DF0191BEDF96DF4A95D9F74F9123
:10059800F1E0E3E300EAABDF8EDF0191B3DF8BDF4D
:0605A8004A95D9F7089501
:00000001FF
