:020000020000FC
:100000000AC01895189590E3A0E2F1E0E0E0A19312
:100010009A95E9F708950FEF0DBF08E00EBF0FEFB7
:1000200004B910E01AB90FE00BB920E827B94798D6
:10003000479A2C9A56D0E7DF72D0D1E0C0E020E397
:10004000369BFECF59B1507F529507D0599367D058
:100050004798479A2A95A1F7F0CFF0E0E8E600E04C
:10006000E50FF00F5491089530313233343536377F
:100070003839414243444546000000008F938FE0E9
:100080008A95F1F78F910895F7DF6A95E9F77A95E8
:10009000D9F7089560E074E0F7DF08950F93259A8B
:1000A000279A249A0CE50CBD0DB50EB50F91089555
:1000B0000F932B982C980F910EBD0DB507FFFDCF18
:1000C0000EB52C9A08950F932B9A2C980DB50EB55A
:1000D0000F910EBD0DB51EB507FFFCCF0EB52C9AC6
:1000E0000895DCDFD7DF09E3E3DFC6DF09E3E0DF04
:1000F000C3DF0EE1DDDFC0DF00E5DADFBDDF0CE6E8
:10010000D7DFC8DF07E7D4DFB7DF0CE0D1DFB4DF2C
:1001100001E0CEDFB1DF06E0CBDFAEDF0895BEDF6A
:1001200040E14F93F1E0E0E000E8C2DFA5DF01919C
:10013000CADFA2DF4A95D9F74F914F93F1E0E0E192
:1001400000E9B6DF99DF0191BEDF96DF4A95D9F766
:100150004F91F1E0E0E200EAABDF8EDF0191B3DF27
:080160008BDF4A95D9F70895E1
:00000001FF
